:100000000000022081050000BD050000BD050000C4
:10001000BD050000BD050000BD050000000000009A
:10002000000000000000000000000000BD0500000E
:10003000BD05000000000000BD050000BD0500007A
:10004000BD050000BD050000BD050000BD050000A8
:10005000BD050000BD050000BD050000BD05000098
:10006000BD050000BD050000BD050000BD05000088
:10007000BD050000BD050000BD050000BD05000078
:10025000BD050000BD05000010B5054C237833B97D
:10026000044B13B10448AFF300800123237010BD89
:10027000400400200000000008070000084B10B5F3
:100280001BB108480849AFF300800848036803B968
:1002900010BD074B002BFBD0BDE81040184700BF36
:1002A0000000000008070000440400203C04002077
:1002B0000000000080B485B000AF78600023FB60D0
:1002C0000CE00023BB6002E0BB680133BB60BB688D
:1002D000B3F57A7FF8D3FB680133FB60FA687B687B
:1002E0009A42EED31437BD465DF8047B704700BFD9
:1002F00080B500AF1A4A1A4B9B889BB26FEAC34382
:100300006FEAD3439BB29380154A154BDB889BB2AF
:100310006FEAC3436FEAD3439BB2D380104A104BBA
:100320001B899BB243F00C039BB213810D4B4FF41E
:1003300060421A610C4B4FF460421A610B4B0C2265
:100340001A61084B4FF46042DA61074B4FF4604288
:10035000DA61064B0C22DA61002000F0B3F880BDB0
:1003600000000380002001800030018000400180F7
:1003700080B483B000AF78607B68072B44D87B687B
:10038000072B41D801A252F823F000BFAD030000B3
:10039000B9030000C5030000D1030000DD03000025
:1003A000E9030000F5030000FF030000194B4FF4C0
:1003B0007F42C3F8802827E0164B4FF47F42C3F8F2
:1003C000002921E0134B4FF47F42C3F8002A1BE0C1
:1003D000114B4FF47F42C3F8802815E00E4B4FF4C9
:1003E0007F42C3F800290FE00B4B4FF47F42C3F864
:1003F000002A09E0094BFF22C3F8102404E0074B50
:10040000FF22C3F8202400BF0C37BD465DF8047BF3
:10041000704700BF00200180003001800040018053
:1004200080B483B000AF78607B68072B3ED87B68D0
:10043000072B3BD801A252F823F000BF5D04000057
:1004400067040000710400007B04000085040000C4
:100450008F04000099040000A3040000164B002242
:10046000C3F8802822E0144B0022C3F800291DE0C5
:10047000114B0022C3F8002A18E0104B0022C3F8E9
:10048000802813E00D4B0022C3F800290EE00B4B2F
:100490000022C3F8002A09E0094B0022C3F8102407
:1004A00004E0074B0022C3F8202400BF0C37BD46F0
:1004B0005DF8047B704700BF0020018000300180A0
:1004C0000040018080B584B000AF78600023FB60FD
:1004D00014E00122FB6802FA03F31A467B6813401A
:1004E000002B04D0FB681846FFF742FF03E0FB68CF
:1004F0001846FFF795FFFB680133FB60FB68072B8D
:10050000E7DD1037BD4680BD80B582B000AF4FF04B
:10051000FF337B6001233B6000F052F8FFF7E8FEF9
:100520007A683B6813447B607B68082B05D14FF0E9
:10053000FF333B6006237B6006E07B68002B03DA19
:1005400001233B6001237B600C4B1B6801330B4A8A
:1005500013600A4B1B681D2B02DD084B00221A603A
:100560007B681846FFF704FF044B1B681846FFF72B
:10057000A1FE7B681846FFF753FFD1E7000000207B
:1005800009490A4A0A4B9A42BEBF51F8040B42F885
:10059000040BF8E70749084A00209142BCBF41F824
:1005A000040BFAE7FFF7B0FF0C0700000000002083
:1005B00040040020400400205C040020FEE700BF4F
:1005C00080B400AF064B074A1A60074B074A1A600F
:1005D000074B084A1A60BD465DF8047B704700BFB0
:1005E0000000022048E1AA400800022048E14641FC
:1005F0000400022033335741024B13B1024800F08C
:1006000005B87047000000001906000001460020F0
:100610000246034600F016B838B5084B084DED1AEF
:10062000AC1018BFED1805D0013C55F8043D9847B3
:10063000002CF9D1BDE8384000F05CB83804002047
:100640003C0400202DE9F047254C2568D5F84841A9
:100650000646884692469946CCB360681F2818DC47
:10066000431C7EB104EB80050121C5F888A0D4F8B5
:10067000887101FA00F21743022EC4F88871C5F898
:1006800008911ED00230636044F820800020BDE84D
:10069000F087144B03B34FF4C870AFF300800446E7
:1006A000D0B1D5F84831002780E88800C5F8484126
:1006B00038460123C4F88871C4F88C71002EE1D04B
:1006C000D0E7D4F88C110A43C4F88C21DAE705F599
:1006D000A674C5F84841C0E74FF0FF30BDE8F08789
:1006E0000407000000000000F8B500BFF8BC08BC1B
:1006F0009E467047F8B500BFF8BC08BC9E467047E0
:0C07000043000000080000200000000082
:10070C000A0000000000000000000000F4020020BD
:10071C005C030020C4030020000000000000000067
:10072C0000000000000000000000000000000000BD
:10073C0000000000000000000000000000070000A6
:10074C00000000000000000000000000000000009D
:10075C00000000000000000000000000000000008D
:10076C00000000000000000000000000000000007D
:10077C00000000000000000000000000000000006D
:10078C00000000000000000000000000000000005D
:10079C00000000000000000000000000000000004D
:1007AC00000000000000000000000000000000003D
:1007BC0001000000000000000E33CDAB34126DE6DA
:1007CC00ECDE05000B000000000000000000000043
:1007DC00000000000000000000000000000000000D
:1007EC0000000000000000000000000000000000FD
:1007FC0000000000000000000000000000000000ED
:10080C0000000000000000000000000000000000DC
:100B3C00F90500007D0200005902000000000000D1
:020000042002D8
:100000000000FA43000073430080D5430000C04362
:040000030000058173
:00000001FF
