:1000000000000220D10200000D0300000D030000DB
:100010000D0300000D0300000D03000000000000B0
:100020000000000000000000000000000D030000C0
:100030000D030000000000000D0300000D03000090
:100040000D0300000D0300000D0300000D03000070
:100050000D0300000D0300000D0300000D03000060
:100060000D0300000D0300000D0300000D03000050
:100070000D0300000D0300000D0300000D03000040
:100250000D0300000D03000010B5054C237833B9E1
:10026000044B13B10448AFF300800123237010BD89
:1002700040040020000000002007000008B5034BE8
:100280001BB103490348AFF3008008BD0000000024
:10029000440400202007000080B400AF064B074A4A
:1002A0001A60074B074A1A60074B084A1A6000BFDA
:1002B000BD465DF8047B70470000022048E1AA407B
:1002C0000800022048E14641040002203333574130
:1002D00009490A4A0A4B9A42BEBF51F8040B42F838
:1002E000040BF8E70749084A00209142BCBF41F8D7
:1002F000040BFAE700F03AF92407000000000020A0
:10030000400400204004002080040020FEE700BFDD
:1003100080B485B000AF78600023FB600CE0002360
:10032000BB6002E0BB680133BB60BB68B3F57A7F9A
:10033000F8D3FB680133FB60FA687B689A42EED31E
:1003400000BF1437BD465DF8047B704780B500AF31
:100350001B4B9B889BB21A4A6FEAC3436FEAD34395
:100360009BB29380164BDB889BB2154A6FEAC3435E
:100370006FEAD3439BB2D380114B1B899BB2104AC7
:1003800043F00C039BB213810E4B4FF460421A6191
:100390000D4B4FF460421A610C4B0C221A61094B51
:1003A0004FF46042DA61084B4FF46042DA61074B68
:1003B0000C22DA61002000F0B5F800BF80BD00BF5C
:1003C0000000038000200180003001800040018097
:1003D00080B483B000AF78607B68072B44D87B681B
:1003E000072B41D801A252F823F000BF0D040000F2
:1003F0001904000025040000310400003D04000041
:1004000049040000550400005F040000194B4FF43C
:100410007F42C3F8802827E0164B4FF47F42C3F891
:10042000002921E0134B4FF47F42C3F8002A1BE060
:10043000114B4FF47F42C3F8802815E00E4B4FF468
:100440007F42C3F800290FE00B4B4FF47F42C3F803
:10045000002A09E0094BFF22C3F8102404E0074BEF
:10046000FF22C3F8202400BF00BF0C37BD465DF853
:10047000047B704700200180003001800040018033
:1004800080B483B000AF78607B68072B3ED87B6870
:10049000072B3BD801A252F823F000BFBD04000097
:1004A000C7040000D1040000DB040000E5040000E4
:1004B000EF040000F904000003050000164B0022C1
:1004C000C3F8802822E0144B0022C3F800291DE065
:1004D000114B0022C3F8002A18E0104B0022C3F889
:1004E000802813E00D4B0022C3F800290EE00B4BCF
:1004F0000022C3F8002A09E0094B0022C3F81024A7
:1005000004E0074B0022C3F8202400BF00BF0C37D3
:10051000BD465DF8047B70470020018000300180FB
:100520000040018080B584B000AF78600023FB609C
:1005300014E00122FB6802FA03F31A467B681340B9
:10054000002B04D0FB681846FFF742FF03E0FB686E
:100550001846FFF795FFFB680133FB60FB68072B2C
:10056000E7DD00BF1037BD4680BD000080B582B01A
:1005700000AF4FF0FF337B6001233B60FFF78CFE41
:10058000FFF7E4FE7A683B6813447B607B68082BC6
:1005900005D14FF0FF333B6006237B6006E07B68AC
:1005A000002B03DA01233B6001237B600D4B1B68AA
:1005B00001330C4A13600B4B1B68B3F57A7F02DBE7
:1005C000084B00221A607B681846FFF701FF054BB5
:1005D0001B681846FFF79CFE7B681846FFF750FF24
:1005E000D0E700BF00000020024B13B1024800F02A
:1005F00005B870470000000009060000002301460E
:100600001A46184600F01EB838B50A4C0A4D641B4D
:10061000A4100AD004F18043013B05EB8305013CA3
:1006200055F804399847002CF9D1BDE8384000F05E
:100630006FB800BF400400203C040020704700BF9A
:10064000704700BF2DE9F8432B4D064628689846B1
:100650000F469146FFF7F2FF284B1C68D4F848314B
:10066000002B3DD05A681F2A0DDC02F1010C16BB8D
:100670000232C3F804C0286843F82270FFF7E0FF95
:100680000020BDE8F8831E4B7BB34FF4C870AFF376
:100690000080034648B3D4F848210021C0E9002176
:1006A0004FF0010CC4F848010A46C0F88811C0F8A0
:1006B0008C11002EDCD003EB82010124C1F888905C
:1006C000D3F8880194402043022EC3F88801C1F872
:1006D0000881CDD1D3F88C110C43C3F88C41C7E706
:1006E00004F5A673C4F84831BCE72868FFF7A8FFF3
:1006F0004FF0FF30C5E700BF300400201C070000AA
:1007000000000000F8B500BFF8BC08BC9E4670476A
:10071000F8B500BFF8BC08BC9E4670470800002032
:0407200000000000D5
:100724000A0000000000000000000000F4020020A5
:100734005C030020C403002000000000000000004F
:1007440000000000000000000000000000000000A5
:100754000000000000000000000000000000000095
:100764000000000000000000000000000000000085
:100774000000000000000000000000000000000075
:100784000000000000000000000000000000000065
:100794000000000000000000000000000000000055
:1007A4000000000000000000000000000000000045
:1007B4000000000000000000000000000000000035
:1007C4000000000000000000000000000000000025
:1007D40001000000000000000E33CDAB34126DE6C2
:1007E400ECDE05000B00000000000000000000002B
:1007F40000000000000000000000000000000000F5
:1008040000000000000000000000000000000000E4
:1008140000000000000000000000000000000000D4
:1008240000000000000000000000000000000000C4
:100B54005C040020E90500007D0200005902000049
:020000042002D8
:100000000000FA43000073430080D5430000C04362
:04000003000002D126
:00000001FF
